:03000000020116E4
:0C011600787FE4F6D8FD75813C02015DA5
:10030E0008280000000000000000202008415800CE
:10031E000040CCCCCD412CCCCD4174CCCD418266AD
:0D032E006641900000417000004140000059
:10034500D3EF9400EE6480948040167D6EEDD394D7
:10035500007480948040031D80F3EF1F70E21E80BF
:01036500DFB8
:010366002274
:1002C700E4F530120003E53C60FC7FF47E01120385
:1002D7004512027A7C007D0C12007DEC12002B8FF8
:1002E7002B8E2A8D298C2812027A7C007D0C120015
:1002F7007DEC12002B8F2F8E2E8D2D8C2C0530121E
:070307000213E4F53C80BF86
:100213007533007534007535287FAA1200197FBB2A
:100223001200197FCC1200197FDD120019753100FD
:10023300753208AB33E5352408F9E43534FAC3E9FC
:100243009532F9EA9531FA120064FF120019E5328A
:10025300153270021531D3E5329400E53164809490
:100263008050D07FDD1200197FCC1200197FBB12A2
:0702730000197FAA02001927
:09033B00013C00013B00013A0005
:10000300438920758DFD758BFDC29FD29ED28ED202
:060013009CD2AFD2AC222A
:060019008F993099FD22D1
:030023000201A235
:1001A200C0E0C0D075D000C002C003C004C005C00A
:0101B2000745
:1001B30030984CC298AF99EFFD7C006411700575BF
:1001C3003A01803DE53AFB7A006401700BED64224D
:1001D3004C7005753A028029EB64024A700AEF6499
:1001E300337005753A038019E53A6403700CEF64C4
:1001F300447007F53A753C018007753A008002C2E6
:010203009961
:0F020400D007D005D004D003D002D0D0D0E03244
:1000260075F020800E75F010800575F0087D007E55
:10003600007F003392D530D5031200B3EC33401065
:10004600EF33FFEE33FEED33FDEC33FCD5F0ED225E
:0E005600E5F0247EA2D513CC92E7CDCEFF229A
:100122000202C7E493A3F8E493A34003F68001F22A
:1001320008DFF48029E493A3F85407240CC8C333DE
:10014200C4540F4420C8834004F456800146F6DFAD
:10015200E4800B010204081020408090030EE47E2C
:10016200019360BCA3FF543F30E509541FFEE493A2
:10017200A360010ECF54C025E060A840B8E493A369
:10018200FAE493A3F8E493A3C8C582C8CAC583CA94
:10019200F0A3C8C582C8CAC583CADFE9DEE780BE4C
:0103440000B8
:10006400BB010689828A83E0225002E722BBFE029A
:09007400E32289828A83E49322CD
:10007D00C2D5EC30E709B2D5E4C39DFDE49CFCEE9E
:10008D0030E715B2D5E4C39FFFE49EFE1200C1C355
:10009D00E49DFDE49CFC80031200C130D507C3E450
:0600AD009FFFE49EFE220D
:0E00B300C3E49FFFE49EFEE49DFDE49CFC225E
:10027A00AC36AD37AE38AF397810EC4D4E4F70040E
:10028A007CA57DA5C3EC13FCED13FDEE13FEEF1365
:10029A00FF5010EC64CCFCED644CFDEE644EFEEFB6
:1002AA0064CEFFD8DF8C368D378E388F39EE547F87
:0D02BA00FE228E368F3774A5F538F53922F7
:1000C100BC000BBE0029EF8DF084FFADF022E4CC23
:1000D100F875F008EF2FFFEE33FEEC33FCEE9DECEC
:1000E100984005FCEE9DFE0FD5F0E9E4CEFD22ED32
:1000F100F8F5F0EE8420D21CFEADF075F008EF2F7C
:10010100FFED33FD4007985006D5F0F222C398FD6C
:050111000FD5F0EA2209
:00000001FF
